:0200000049288D
:10000600023083120313FC004930FD00FD0B092862
:0A001600FC0B0928000000000800A0
:1000200083120313A8012408F1000130F0007108C5
:1000300003191E28F00D7010FF3E18287008A70045
:100040002308840070080005F10071080130031DC9
:100050000030F0002608F006031946282508003C69
:100060000318362803200320A5032E282308840024
:1000700027080005F10071080130031D0030F00071
:100080002608F00603194628FF30A8002808F000CB
:02009000080066
:100092008316031306148614081388138312081395
:1000A20088130630A3000130A4003230A500A60157
:1000B2001020700803196028A2186028A2140630C4
:1000C200A300A4013230A5000130A6001020700860
:1000D20003196E2822186E2822140630A300A401E8
:1000E2003230A5000130A60010207008031D7E28C2
:1000F200221C7E288030880622100630A3000130A0
:10010200A4003230A500A60110207008031D8E281D
:0E011200A21C8E2840308806A21052288F288A
:02400E004A2F37
:00000001FF
