:020000003F2B94
:06000600000000000800EC
:10000C000F3083120313FC004730FD00FD0B0C284E
:0A001C00FC0B0C2800000000080097
:0E002600213083120313FD00FD0B1728080084
:1000340083120313CA1B20288612212886164A1B02
:100044002528061226280616CA1A2A2886112B28BD
:1000540086154A1A2F280611302806153718342811
:10006400061435280610861403208610CA193C2865
:1000740086123D2886164A19412806124228061679
:10008400CA1846288611472886154A184B2806118F
:100094004C280615371850280614512806108614C3
:1000A40003208610371C58280620592813200800DE
:0E00B4008312031339088A00380882000800FE
:1000C2000E3083120313FD00FD0B652800000800AB
:1000D20083120313F801F9011030FC00710DF80DC1
:1000E200F90D7408F8027508031C750FF90203185C
:1000F20081287408F80775080318750FF9070310AB
:0A010200F00DF10DFC0B6F28080052
:10010C008312031337104908CA001A203714080049
:10011C0083120313C7010530470203189C284708B4
:10012C004607840020308000C70A912847084607FC
:10013C0084008001C70347084607C8000A30F40052
:10014C00F5014408F0004508F10069207808F0003A
:10015C007908F1003030F0074808840070088000FE
:10016C000A30F400F5014408F0004508F10069205C
:10017C007008C4007108C50000307106031DC82842
:10018C0000307006031DCB28CD28C703A12808001A
:10019C00831203139F01C0309F043609F0007008CE
:1001AC0083169F051F179F1783124408F000F00D4C
:1001BC007010F00D7010F00D701070089F041F146B
:1001CC0061201F151F1DEC280000E8281F101E08B9
:1001DC00F100F00183161E08F0040030F104080051
:1001EC00831203132230FC00F801F901FA01FB0120
:1001FC00FC0303192C290310FB0CFA0CF90CF80C5A
:10020C00F30CF20CF10CF00C031CFE28FC0303198C
:10021C001E297408F80775080318750FF907760876
:10022C000318760FFA0777080318770FFB070229D4
:10023C007408F80775080318750FF9077608031882
:0E024C00760FFA0777080318770FFB070800F4
:10025A0083120313FB01FA01F901F801A001730DDE
:10026A00F80D7408F8027508031C750FF902760870
:10027A00031C760FFA027708031C770FFB020001B2
:10028A00031C0130A002F30D0730FC00730DF80DBA
:10029A00F90DFA0DFB0DA00D7408731C6629F802FE
:1002AA007508031C750FF9027608031C760FFA020B
:1002BA007708031C770FFB020001031C0130A00220
:1002CA007729F80775080318750FF90776080318D0
:1002DA00760FFA0777080318770FFB070001031850
:1002EA000130A007F30DFC0B4B29720DF80DF90D27
:1002FA00FA0DFB0DA00D7408731C9529F8027508F8
:10030A00031C750FF9027608031C760FFA027708A8
:10031A00031C770FFB020001031C0130A002A6296F
:10032A00F80775080318750FF90776080318760F8A
:10033A00FA0777080318770FFB0700010318013043
:10034A00A007F20D0730FC00720DF80DF90DFA0D39
:10035A00FB0DA00D7408721CC429F8027508031C51
:10036A00750FF9027608031C760FFA027708031C48
:10037A00770FFB020001031C0130A002D529F80700
:10038A0075080318750FF90776080318760FFA0728
:10039A0077080318770FFB07000103180130A0073D
:1003AA00F20DFC0BA929710DF80DF90DFA0DFB0DD3
:1003BA00A00D7408721CF329F8027508031C750F46
:1003CA00F9027608031C760FFA027708031C770FE6
:1003DA00FB020001031C0130A002042AF807750879
:1003EA000318750FF90776080318760FFA077708C6
:1003FA000318770FFB07000103180130A007F10D5E
:10040A000730FC00710DF80DF90DFA0DFB0DA00D6A
:10041A007408711C222AF8027508031C750FF90268
:10042A007608031C760FFA027708031C770FFB0283
:10043A000001031C0130A002332AF80775080318CB
:10044A00750FF90776080318760FFA077708031865
:10045A00770FFB07000103180130A007F10DFC0B11
:10046A00072A700DF80DF90DFA0DFB0DA00D740891
:10047A00711C512AF8027508031C750FF9027608D7
:10048A00031C760FFA027708031C770FFB020001A0
:10049A00031C0130A002622AF80775080318750FB9
:1004AA00F90776080318760FFA0777080318770F03
:1004BA00FB07000103180130A007F00D0730FC000C
:1004CA00700DF80DF90DFA0DFB0DA00D7408701CD6
:1004DA00802AF8027508031C750FF9027608031CB6
:1004EA00760FFA027708031C770FFB020001031C40
:1004FA000130A002912AF80775080318750FF90749
:10050A0076080318760FFA0777080318770FFB07A0
:10051A00000103180130A007F00DFC0B652A7018C2
:10052A00A42A7408F80775080318750FF9077608DE
:10053A000318760FFA0777080318770FFB070800E6
:10054A00B72A803083120313C400CA2AC030C400F9
:10055A00CA2A9430C400CA2AD430C400CA2A8030B5
:10056A00C400CA2A831203134408013A0319A62AAB
:10057A004408023A0319AB2A4408033A0319AE2A7B
:10058A004408043A0319B12AB42A4503F00044087E
:10059A00F0077008C4007008CA001A203710C70193
:1005AA0047084607840000080319E32A4708460754
:1005BA0084000008C9008620C70AD52A3714080013
:1005CA008316031386100610061186110612861268
:1005DA00831286100610861206128611061106204C
:1005EA000620062086150615861403208610062086
:1005FA0086140320861006208614032086100620FF
:10060A0006118614032086100620861403208610FD
:10061A008611861686140320861006208612061571
:10062A0086140320861006118614032086100620DD
:10063A0086140320861006158614032086100620C9
:10064A0006118614032086108616061686150615C8
:0C065A00861403208610062037140800C8
:100666005A208A110A128000840AB80A0319B90AA4
:08067600F003031D332B080003
:10067E00C623831203139F01C43083169F000514F3
:10068E00851487018801831288018701E5220C30C9
:10069E00CA001A200130C4000130C5002730C60040
:1006AE00A5220230C4000130C5002130C600A522AB
:1006BE00C001C101C201C301C401CE207008831262
:1006CE00C0007108C100C201C3014008F00041081A
:1006DE00F1004208F2004308F3008830F4001330B2
:1006EE00F500F601F701F620FF30F4000330F500B7
:1006FE00F601F7012D217008C4007108C5003A30CB
:10070E00C6008E200130C4000730C5003A30C60046
:10071E00A5220130C400CE2070088312C0007108DB
:10072E00C100C201C3014008C4004108C5003A30EF
:10073E00C6008E200230C4000530C5003A30C60017
:06074E00A5225F2BA92B80
:10078C0021308400163083120313F000AF30B80010
:08079C000330B900332308000B
:0C075E0041344E3431343A34203400343D
:10076A00743465346E34733461346F343A342034FB
:0E077A0020342034203420346D3456340034C2
:020788000F342C
:02400E004A2F37
:00000001FF
