:02000000902945
:06000600000000000800EC
:0E000C00213083120313FD00FD0B0A280800AB
:10001A000F3083120313FC004730FD00FD0B132839
:0A002A00FC0B132800000000080082
:1000340083120313BC1B20288612212886163C1B1E
:100044002528061226280616BC1A2A2886112B28CB
:1000540086153C1A2F280611302806152D18342829
:10006400061435280610861403208610BC193C2873
:1000740086123D2886163C19412806124228061687
:10008400BC1846288611472886153C184B280611AB
:100094004C2806152D1850280614512806108614CD
:1000A400032086102D1C58280D20592806200800EE
:0E00B400831203132F088A002E088200080012
:1000C200831203132D103B08BC001A202D140800C4
:1000D20083120313F801F9011030FC00710DF80DC1
:1000E200F90D7408F8027508031C750FF90203185C
:1000F20081287408F80775080318750FF9070310AB
:0A010200F00DF10DFC0B6F28080052
:10010C000E3083120313FD00FD0B8A28000008003B
:10011C0083120313B9010530390203189C283908DE
:10012C003807840020308000B90A91283908380734
:10013C0084008001B90339083807BA000A30F4008A
:10014C00F5013608F0003708F10069207808F00056
:10015C007908F1003030F0073A088400700880000C
:10016C000A30F400F5013608F0003708F100692078
:10017C007008B6007108B70000307106031DC8285E
:10018C0000307006031DCB28CD28B903A128080028
:10019C00E028803083120313B600F328C030B60079
:1001AC00F3289430B600F328D430B600F32880300E
:1001BC00B600F328831203133608013A0319CF282B
:1001CC003608023A0319D4283608033A0319D728FB
:1001DC003608043A0319DA28DD283703F00036080C
:1001EC00F0077008B6007008BC001A202D10B90179
:1001FC00390838078400000803190C293908380716
:10020C0084000008BB006120B90AFE282D140800E8
:10021C00831203139F01C0309F042C09F000700857
:10022C0083169F051F179F1783123608F000F00DD9
:10023C007010F00D7010F00D701070089F041F14EA
:10024C0086201F151F1D2C29000028291F101E0891
:10025C00F100F00183161E08F0040030F1040800D0
:10026C0083160313861006100611861106128612C9
:10027C0083128610061086120612861106110D20A6
:10028C000D200D20861506158614032086100D20D2
:10029C008614032086100D208614032086100D2052
:1002AC0006118614032086100D2086140320861058
:1002BC00861186168614032086100D2086120615CC
:1002CC0086140320861006118614032086100D2038
:1002DC0086140320861006158614032086100D2024
:1002EC00061186140320861086160616861506152A
:0C02FC008614032086100D202D1408002D
:100308005A208A110A128000840AAE0A0319AF0A19
:08031800F003031D8429080015
:10032000E821831203139F01C43083169F00051434
:1003300085148701880183128801870136210C30DA
:10034000BC001A200130B6000130B7002630B800DA
:10035000CE200230B6000130B7002030B800CE20E9
:10036000B6010E2170088312B6007108B700303054
:10037000B8008E200130B6000530B7003030B8002C
:10038000CE200130B6000E2170088312B60071082D
:10039000B7003030B8008E200230B6000530B7000C
:0A03A0003030B800CE20B029D42977
:1003D000203084000D3083120313F000DA30AE00B9
:0803E0000130AF008421080088
:0C03B40041344E3430343A3420340034EC
:0C03C00041344E3430343A3420340034E0
:0203CC000F34EC
:02400E004A2F37
:00000001FF
