:020000004A298B
:0E000600213083120313FD00FD0B07280800B4
:06001400000000000800DE
:10001A000F3083120313FC004730FD00FD0B132839
:0A002A00FC0B132800000000080082
:1000340083120313B21B2028881321288817321B2C
:100044002528081326280817B21A2A2888122B28CC
:100054008816321A2F280812302808162C1834282B
:1000640008153528081188150A208811B2193C286A
:1000740088133D2888173219412808134228081785
:10008400B218462888124728881632184B280812B6
:100094004C2808162C1850280815512808118815C2
:1000A4000A2088112C1C58280D20592803200800E8
:1000B400831203132C103108B2001A202C140800E8
:0E00C400831203132B088A002A08820008000A
:1000D2007B28803083120313AD008E28C030AD0020
:1000E2008E289430AD008E28D430AD008E2880301A
:1000F200AD008E28831203132D08013A03196A28D2
:100102002D08023A03196F282D08033A03197228A1
:100112002D08043A0319752878282E03F0002D08BB
:10012200F0077008AD007008B2001A202C10B00160
:1001320030082F07840000080319A72830082F076A
:1001420084000008B1005A20B00A99282C14080033
:10015200BB28803083120313AD00CE28C030AD001F
:10016200CE289430AD00CE28D430AD00CE288030D9
:10017200AD00CE28831203132D08013A0319AA28D1
:100182002D08023A0319AF282D08033A0319B228A1
:100192002D08043A0319B528B8282E03F0002D08BB
:1001A200F0077008AD002C147008B2001A202C1051
:0A01B2002F08B2001A202C140800D8
:1001BC0083120313AE012E082D07840000080319C7
:1001CC00EF282E082D0784000008B1005A20AE0A33
:0401DC00E12808000E
:1001E0008316031388110811081288120813881344
:1001F00083128811081188130813881208120D2021
:100200000D200D208816081688150A2088110D204B
:1002100088150A2088110D2088150A2088110D20C4
:10022000081288150A2088110D2088150A208811C7
:100230008812881788150A2088110D20881308163F
:1002400088150A208811081288150A2088110D20A7
:1002500088150A208811081688150A2088110D2093
:10026000081288150A20881188170817881608169A
:0C02700088150A2088110D202C140800AD
:10027C0062208A110A128000840AAA0A0319AB0AA6
:08028C00F003031D3E290800E8
:10029400633083120313A0006130A1007030A20008
:1002A4006130A300A4016330A5006130A600703062
:1002B400A7006130A800A901F0200130AD0004308E
:1002C400AE005630AF00A9200230AD000330AE00BE
:0E02D4002030AF0069202530AD00DE207029FB
:02400E004A2F37
:00000001FF
