:0200000038299D
:0E000600213083120313FD00FD0B07280800B4
:100014000F3083120313FC004730FD00FD0B102842
:0A002400FC0B10280000000008008B
:06002E00000000000800C4
:1000340083120313DD1B20288813212888175D1BD6
:100044002528081326280817DD1A2A2888122B28A1
:1000540088165D1A2F2808123028081657183428D5
:10006400081535280811881517208811DD193C2832
:1000740088133D2888175D1941280813422808175A
:10008400DD1846288812472888165D184B28081260
:100094004C28081657185028081551280811881597
:1000A40017208811571C58280A20592803200800B3
:0E00B4008312031356088A00550882000800C4
:1000C2008312031357105C08DD001A20571408002E
:1000D2007B28803083120313D8008E28C030D800CA
:1000E2008E289430D8008E28D430D8008E288030C4
:1000F200D8008E28831203135808013A03196A287C
:100102005808023A03196F285808033A031972284B
:100112005808043A0319752878285903F00058083A
:10012200F0077008D8007008DD001A205710DB01B4
:100132005B085A07840000080319A7285B085A07BE
:1001420084000008DC006120DB0A992857140800AB
:10015200BB28803083120313D800CE28C030D800C9
:10016200CE289430D800CE28D430D800CE28803083
:10017200D800CE28831203135808013A0319AA287B
:100182005808023A0319AF285808033A0319B2284B
:100192005808043A0319B528B8285903F00058083A
:1001A200F0077008D80057147008DD001A205710A5
:0A01B2005A08DD001A205714080057
:1001BC005A208A110A128000840AD50A0319D60A19
:0801CC00F003031DDE2808000A
:1001D4008316031388110811081288120813881350
:1001E40083128811081188130813881208120A2030
:1001F4000A200A20881608168815172088110A2054
:100204008815172088110A208815172088110A20BC
:1002140008128815172088110A20881517208811BC
:10022400881288178815172088110A208813081641
:1002340088151720881108128815172088110A209C
:1002440088151720881108168815172088110A2088
:100254000812881517208811881708178816081699
:0C0264008815172088110A205714080084
:10027000FE23EA200130D8000430D9005630DA00DD
:10028000A9200230D8000330D9005030DA006920AC
:100290000B30FB002630FC005D30FD00FD0B4E29CD
:1002A000FC0B4E29FB0B4E29000000000130DD0045
:1002B0001A200130D8000130D9004B30DA00692013
:1002C0000230D8000130D9002530DA0069200B3027
:1002D000FB002630FC005D30FD00FD0B6D29FC0BA2
:1002E0006D29FB0B6D29000000001830DD001A207D
:1002F0000630FB001330FC00AD30FD00FD0B7E2905
:10030000FC0B7E29FB0B7E29000000000B30FB005C
:100310002630FC005D30FD00FD0B8C29FC0B8C2988
:10032000FB0B8C29000000001830DD001A2006307D
:10033000FB001330FC00AD30FD00FD0B9D29FC0BD4
:100340009D29FB0B9D29000000000B30FB0026308F
:10035000FC005D30FD00FD0BAB29FC0BAB29FB0B5A
:10036000AB29000000001830DD001A200630FB0029
:100370001330FC00AD30FD00FD0BBC29FC0BBC298B
:10038000FB0BBC29000000000B30FB002630FC00FA
:100390005D30FD00FD0BCA29FC0BCA29FB0BCA29E5
:1003A000000000001830DD001A200630FB0013307A
:1003B000FC00AD30FD00FD0BDB29FC0BDB29FB0B4A
:1003C000DB29000000000B30FB002630FC005D3014
:1003D000FD00FD0BE929FC0BE929FB0BE9290000D5
:1003E00000001830DD001A200630FB001330FC003E
:1003F000AD30FD00FD0BFA29FC0BFA29FB0BFA29A5
:10040000000000000B30FB002630FC005D30FD00DA
:10041000FD0B082AFC0B082AFB0B082A0000000031
:100420001830DD001A200630FB001330FC00AD3020
:10043000FD00FD0B192AFC0B192AFB0B192A0000E1
:1004400000000B30FB002630FC005D30FD00FD0B92
:10045000272AFC0B272AFB0B272A00000000183054
:10046000DD001A200630FB001330FC00AD30FD002B
:10047000FD0B382AFC0B382AFB0B382A0000000041
:100480000B30FB002630FC005D30FD00FD0B462AE2
:10049000FC0B462AFB0B462A000000001830DD004A
:1004A0001A200630FB001330FC00AD30FD00FD0BC0
:1004B000572AFC0B572AFB0B572A000000000B3071
:1004C000FB002630FC005D30FD00FD0B652AFC0BB7
:1004D000652AFB0B652A000000001830DD001A2099
:1004E0000630FB001330FC00AD30FD00FD0B762A1A
:1004F000FC0B762AFB0B762A000000000B30FB0079
:100500002630FC005D30FD00FD0B842AFC0B842AA4
:10051000FB0B842A000000001830DD001A20063092
:10052000FB001330FC00AD30FD00FD0B952AFC0BE9
:10053000952AFB0B952A000000000B30FB002630AB
:10054000FC005D30FD00FD0BA32AFC0BA32AFB0B76
:10055000A32A000000001830DD001A200630FB003E
:100560001330FC00AD30FD00FD0BB42AFC0BB42AA7
:10057000FB0BB42A000000000B30FB002630FC000F
:100580005D30FD00FD0BC22AFC0BC22AFB0BC22A08
:10059000000000001830DD001A200630FB00133088
:1005A000FC00AD30FD00FD0BD32AFC0BD32AFB0B66
:1005B000D32A000000000B30FB002630FC005D3029
:1005C000FD00FD0BE12AFC0BE12AFB0BE12A0000F8
:1005D00000001830DD001A200630FB001330FC004C
:1005E000AD30FD00FD0BF22AFC0BF22AFB0BF22AC8
:1005F000000000000B30FB002630FC005D30FD00E9
:10060000FD0B002BFC0B002BFB0B002B0000000054
:100610001830DD001A200630FB001330FC00AD302E
:10062000FD00FD0B112BFC0B112BFB0B112B000004
:1006300000000B30FB002630FC005D30FD00FD0BA0
:100640001F2BFC0B1F2BFB0B1F2B00000000183077
:10065000DD001A200630FB001330FC00AD30FD0039
:10066000FD0B302BFC0B302BFB0B302B0000000064
:100670000B30FB002630FC005D30FD00FD0B3E2BF7
:10068000FC0B3E2BFB0B3E2B000000001830DD0066
:100690001A200630FB001330FC00AD30FD00FD0BCE
:1006A0004F2BFC0B4F2BFB0B4F2B000000000B3094
:1006B000FB002630FC005D30FD00FD0B5D2BFC0BCC
:1006C0005D2BFB0B5D2B000000001830DD001A20B5
:1006D0000630FB001330FC00AD30FD00FD0B6E2B2F
:1006E000FC0B6E2BFB0B6E2B000000000B30FB0095
:1006F0002630FC005D30FD00FD0B7C2BFC0B7C2BC1
:10070000FB0B7C2B000000001830DD001A200630A7
:10071000FB001330FC00AD30FD00FD0B8D2BFC0BFE
:100720008D2BFB0B8D2B000000000B30FB002630C7
:10073000FC005D30FD00FD0B9B2BFC0B9B2BFB0B92
:100740009B2B000000001830DD001A200630FB0053
:100750001330FC00AD30FD00FD0BAC2BFC0BAC2BC3
:10076000FB0BAC2B000000000130D8000130D90099
:100770002030DA0069200230D8000130D90038304A
:08078000DA0069203A29C32BBD
:1007FC0020308400353083120313F000C930D5004B
:08080C000330D600DE200800D5
:0A07920045344E3447342E34003451
:10079C005F344634453452344E3441344E34443450
:1007AC004F34203443346134783469346E346434D7
:0607BC0061345F340034DB
:1007C2005F344634453452344E3441344E3444342A
:1007D2004F34203443346134783469346E346434B1
:0607E20061345F340034B5
:0A07E80045344E3447342E340034FB
:0A07F2006334613470346134003464
:02400E004A2F37
:00000001FF
