:02000000602975
:0E000600213083120313FD00FD0B07280800B4
:06001400000000000800DE
:10001A000F3083120313FC004730FD00FD0B132839
:0A002A00FC0B132800000000080082
:1000340083120313BC1B20288612212886163C1B1E
:100044002528061226280616BC1A2A2886112B28CB
:1000540086153C1A2F280611302806152D18342829
:1000640006143528061086140A208610BC193C286C
:1000740086123D2886163C19412806124228061687
:10008400BC1846288611472886153C184B280611AB
:100094004C2806152D1850280614512806108614CD
:1000A4000A2086102D1C58280D20592803200800EA
:0E00B400831203132C088A002B088200080018
:1000C20083120313F801F9011030FC00710DF80DD1
:1000D200F90D7408F8027508031C750FF90203186C
:1000E20079287408F80775080318750FF9070310C3
:0A00F200F00DF10DFC0B672808006B
:1000FC00831203132D103B08BC001A202D1408008A
:10010C009828803083120313B600AB28C030B60099
:10011C00AB289430B600AB28D430B600AB28803076
:10012C00B600AB28831203133608013A031987284B
:10013C003608023A03198C283608033A03198F281B
:10014C003608043A0319922895283703F00036082C
:10015C00F0077008B6007008BC001A202D10B90109
:10016C0039083807840000080319C42839083807EF
:10017C0084000008BB007E20B90AB6282D140800A4
:10018C0083160313861006100611861106128612AA
:10019C0083128610061086120612861106110D2087
:1001AC000D200D208615061586140A2086100D20AC
:1001BC0086140A2086100D2086140A2086100D2025
:1001CC00061186140A2086100D2086140A2086102B
:1001DC008611861686140A2086100D2086120615A6
:1001EC0086140A208610061186140A2086100D200B
:1001FC0086140A208610061586140A2086100D20F7
:10020C00061186140A208610861606168615061503
:0C021C0086140A2086100D202D14080006
:1002280083120313B901053039020318222939084A
:100238003807840020308000B90A172939083807A0
:1002480084008001B90339083807BA000A30F4007D
:10025800F5013608F0003708F10061207808F00051
:100268007908F1003030F0073A08840070088000FF
:100278000A30F400F5013608F0003708F100612073
:100288007008B6007108B70000307106031D4E29CA
:1002980000307006031D51295329B9032729080086
:1002A8005A208A110A128000840AAB0A0319AC0A80
:0802B800F003031D54290800A6
:1002C000563083120313A0004130A1004C30A2002D
:1002D0004F30A3005230A4002030A5004130A600CA
:1002E0004430A7003A30A8002030A900AA01B40188
:1002F000B5019F01CE3083169F0005148701880148
:10030000831288018701C6200C30BC001A200130FE
:10031000B6000130B7002030B80086201F140D3021
:10032000FD00FD0B91291F151E08880083161E086D
:10033000831287000808B500B4010708B407031842
:10034000B50A1F100D30FD00FD0BA4293408B600BE
:100350003508B7002E30B80014210230B60009303D
:0C036000B7002E30B80086208E29B52989
:02400E004A2F37
:00000001FF
