:0200000079295C
:0E000600213083120313FD00FD0B07280800B4
:06001400000000000800DE
:10001A000F3083120313FC004730FD00FD0B132839
:0A002A00FC0B132800000000080082
:1000340083160313E91B2128831206132328831232
:1000440006178316691B2928831286122B2883120C
:1000540086168316E91A312883120612332883126E
:1000640006168316691A3928831286113B288312CF
:1000740086156F183F2806144028061006150A2016
:1000840006118316E9194928831206134B28831293
:10009400061783166919512883128612532883126E
:1000A40086168316E9185928831206125B288312D0
:1000B4000616831669186128831286116328831231
:1000C40086156F18672806146828061006150A2076
:0E00D40006116F1C6F280D20702803200800F5
:1000E200831203136F1083166808E9001A206F1435
:0200F200080004
:0E00F400831603135D088A005C088200080072
:100102009328803083160313E400A628C030E4004D
:10011200A6289430E400A628D430E400A628803033
:10012200E400A628831603136408013A03198228FF
:100132006408023A031987286408033A03198A28D3
:100142006408043A03198D2890286503F0006408B6
:10015200F0077008E4007008E9001A206F10831697
:10016200E70167086607840000080319C1286708C9
:10017200660784000008E80071208316E70AB228A7
:0601820083126F14080057
:10018800023083120313FC004930FD00FD0BCA281E
:0A019800FC0BCA280000000008005C
:1001A200013083160313E4000130E5002030E6003D
:0401B20081200800A0
:1001B60083160313061106108611061286120613FD
:1001C60083120611061006138612061286110D20DA
:1001D6000D200D200616861506150A2006110D207F
:1001E60006150A2006110D2006150A2006110D20F7
:1001F600861106150A2006110D2006150A2006117D
:100206000612061706150A2006110D200613861576
:1002160006150A200611861106150A2006110D205C
:1002260006150A200611861506150A2006110D2048
:10023600861106150A200611061786160616861555
:0C02460006150A2006110D206F14080098
:10025200023083160313E4000130E500A030E6000B
:0402620081200800EF
:100266007A208A110A128000840ADC0A0319DD0A40
:08027600F003031D3329080009
:10027E0083160313E3015F08F1000130F0007108EB
:10028E0003194D29F00D7010FF3E47297008E2004A
:10029E005E08840070080005F10071080130031D2E
:1002AE000030F0006108F006031976296008003C62
:1002BE0003186629C420C4208316E0035D295E0856
:1002CE00840062080005F10071080130031D003042
:1002DE00F0006108F00603197629FF30E300630889
:0402EE00F000080014
:1002F200E022083083160313DE000530DF001430DD
:10030200E000E1013F210830DE000130DF0014305F
:10031200E000E1013F210830DE000230DF0014304E
:10032200E000E1013F210830DE000330DF0014303D
:10033200E000E1013F21013088000710DB200C3092
:100342008316E9001A20071001308316E4000630F4
:10035200E5006330E600812002308316E4000930B4
:10036200E500C630E60081200B30FB002630FC00A1
:100372005D30FD00FD0BBB29FC0BBB29FB0BBB2930
:100382000000000002308316E4000430E500D230A1
:10039200E6008120D1200B30FB002630FC005D30CE
:1003A200FD00FD0BD229FC0BD229FB0BD229000048
:1003B200000001308316E4000430E500C830E60096
:1003C200812029210B30FB002630FC005D30FD002E
:1003D200FD0BE929FC0BE929FB0BE92900000000D0
:1003E20002308316E4000630E5004D30E60081203D
:1003F200D1200B30FB002630FC005D30FD00FD0BF0
:10040200002AFC0B002AFB0B002A0000000001302E
:100412008316E4000530E5004530E60081202921FD
:100422000B30FB002630FC005D30FD00FD0B172A6F
:10043200FC0B172AFB0B172A000000000230831660
:10044200E4000930E5005730E6008120D1200B306E
:10045200FB002630FC005D30FD00FD0B2E2AFC0B5C
:100462002E2AFB0B2E2A0000000001308316E40026
:100472000630E5005C30E600812029210B30FB00CC
:100482002630FC005D30FD00FD0B452AFC0B452AA1
:0C049200FB0B452A00000000A5294E2AA3
:1005C000203084004F3083120313F0005430831620
:1005D000DC000230DD003321A03084003C30831287
:1005E0000313F000A3308316DC000230DD0033215A
:0205F000080001
:1004A80020342034203420342034203420342034A4
:1004B8002034203420342034203420342034203494
:1004C8002034203420342034203420342034203484
:1004D8002034203420342034203420342034203474
:0A04E8002034203420342034003486
:1004F2006134633465346E34643465347234003488
:100502002034203470346134723461342034203425
:04051200203400345D
:0A0516006F34203420342034003408
:0E0520006C34653464342034203420340034CC
:10052E004434493447344934543445342034203427
:08053E00203420342034003485
:100546002034203420342034203420342034203405
:1005560020342034203420342034203420342034F5
:1005660020342034203420342034203420342034E5
:1005760020342034203420342034203420342034D5
:0C05860020342034203420342034003491
:0405920041340034BC
:1005960063346F34723472346534743461342034A5
:0405A60020340034C9
:1005AA00733465347134753465346E346334693444
:0405BA006134003474
:02400E004A2F37
:00000001FF
