:020000005F2976
:0E000600213083120313FD00FD0B07280800B4
:06001400000000000800DE
:10001A000F3083120313FC004730FD00FD0B132839
:0A002A00FC0B132800000000080082
:10003400831203179A1B20280613212806171A1B5C
:1000440025288612262886169A1A2A2806122B286C
:1000540006161A1A2F2886113028861583160313BC
:100064006F193728831206143928831206100615CF
:100074000A20061103179A19412806134228061765
:100084001A1946288612472886169A184B280612EB
:100094004C2806161A1850288611512886158316DE
:1000A40003136F195828831206145A288312061052
:1000B40006150A20061183166F1D62280D20632879
:0400C400032008000D
:0E00C8008312031711088A0010088200080036
:1000D600023083120313FC004930FD00FD0B71282A
:0A00E600FC0B712800000000080068
:1000F000831603136F118312031719089A001A202D
:0601000083166F150800D4
:1001060095288030831203179300A828C0309300E7
:10011600A82894309300A828D4309300A8288030CB
:100126009300A828831203171308013A0319842899
:100136001308023A031989281308033A03198C286D
:100146001308043A03198F2892281403F0001308A1
:10015600F0077008930070089A001A2083166F1132
:100166008312031796011608150784000008031961
:10017600C6281608150784000008990078208312FF
:0E0186000317960AB628831603136F15080098
:10019400831603130611061086110612861206131F
:1001A40083120611061006138612061286110D20FC
:1001B4000D200D200616861506150A2006110D20A1
:1001C40006150A2006110D2006150A2006110D2019
:1001D400861106150A2006110D2006150A2006119F
:1001E4000612061706150A2006110D200613861599
:1001F40006150A200611861106150A2006110D207F
:1002040006150A200611861506150A2006110D206A
:10021400861106150A200611061786160616861577
:0E02240006150A2006110D2083166F1508001E
:100232008312031798011408F1000130F0007108CD
:1002420003192729F00D7010FF3E2129700897002D
:100252001308840070080005F10071080130031DC5
:100262000030F0001608F006031950291508003C6A
:10027200031840296B206B200317950337291308B5
:10028200840017080005F10071080130031D0030D9
:10029200F0001608F00603195029FF3098001808DC
:0402A200F000080060
:1002A60064208A110A128000840A900A0319910AAE
:0802B600F003031D53290800A9
:1002BE007C24831603130710081488140815881558
:1002CE00CA208312071001300317930002309400E6
:1002DE005C309500832002308312031793000230A6
:1002EE0094006330950083201F30FB007130FC00BA
:1002FE001E30FD00FD0B8129FC0B8129FB0B812992
:10030E0000000130831203179A001A2008300317D9
:10031E0093009401143095009601192170189B29B1
:10032E0083160313EF129E2983160313EF1608305C
:10033E008312031793000130940014309500960138
:10034E0019217018AE29831603136F13B129831662
:10035E0003136F17083083120317930002309400B3
:10036E0014309500960119217018C12983160313B4
:10037E00EF13C42983160313EF17083083120317E4
:10038E0093000330940014309500960119217018D3
:10039E00D2291210D329121483160313EF1EE0294B
:1003AE006F1FE029EF1FE02983120317121CE029AB
:1003BE00D52B8312031702309300023094002130A4
:1003CE00950083208312A0012430200203185C2A9A
:1003DE00183003179A001A200230FB000430FC007C
:1003EE00BA30FD00FD0BF929FC0BF929FB0BF9299D
:1003FE000000083003179300940114309500960105
:10040E00192170180E2A83160313EF12112A831660
:10041E000313EF1608308312031793000130940074
:10042E0014309500960119217018212A8316031392
:10043E006F13242A831603136F17083083120317C2
:10044E009300023094001430950096011921701813
:10045E00342A83160313EF13372A83160313EF1769
:10046E000830831203179300033094001430950064
:10047E00960119217018452A1210462A1214831655
:10048E000313EF1A532A6F1B532AEF1B532A83129F
:10049E0003171218532A592A8312031701309A0090
:1004AE001A205C2A0313A00AEB29013003179A00C5
:1004BE001A20023003179A001A20083003179300EF
:1004CE00940114309500960119217018722A831622
:1004DE000313EF12752A83160313EF1608308312D7
:1004EE0003179300013094001430950096011921E2
:1004FE007018852A831603136F13882A8316031325
:10050E006F170830831203179300023094001430D3
:10051E009500960119217018982A83160313EF136C
:10052E009B2A83160313EF170830831203179300C9
:10053E000330940014309500960119217018A92AE1
:10054E001210AA2A1214121CB12A831603136F1842
:10055E00B12A6F14831203171218E02A831603139D
:10056E006F1CE02A013083120317930002309400AF
:10057E005630950083200230831203179300063005
:10058E0094005030950083201530FB004B30FC005A
:10059E00BE30FD00FD0BD12AFC0BD12AFB0BD12A5C
:1005AE0000000130831203179A001A20CF01831620
:1005BE006F1083160313EF1EE72AEF18E72AEF14C6
:1005CE00EF1A162BEF1C162B83124F08003A031D41
:1005DE00122B01300317930002309400DE30950089
:1005EE008320023083120317930003309400D93016
:1005FE00950083200B30FB002630FC005D30FD00A3
:10060E00FD0B072BFC0B072BFB0B072B0000000031
:10061E008312CF0A142B0A30CF078316EF106F1FE9
:10062E001B2BEF191B2BEF156F1B4A2BEF1D4A2BA4
:10063E0083124F08013A031D462B01300317930016
:10064E0002309400E93095008320023083120317A4
:10065E00930003309400E430950083200B30FB00B0
:10066E002630FC005D30FD00FD0B3B2BFC0B3B2BC5
:10067E00FB0B3B2B000000008312CF0A482B0A30E5
:10068E00CF078316EF11EF1F4F2B6F1A4F2B6F16DD
:10069E00EF1B7E2B6F1E7E2B83124F08023A031D1B
:1006AE007A2B01300317930002309400D33095005B
:1006BE008320023083120317930003309400BD3061
:1006CE00950083200B30FB002630FC005D30FD00D2
:1006DE00FD0B6F2BFC0B6F2BFB0B6F2B0000000029
:1006EE008312CF0A7C2B0A30CF0783166F12831228
:1006FE004F08033A031DA82B013003179300023055
:10070E009400AE30950083200230831203179300BD
:10071E0002309400A03095008320831207142930F4
:10072E00FB009630FC007F30FD00FD0B9C2BFC0B7C
:10073E009C2BFB0B9C2B013003179A001A200710E1
:10074E00CF011E304F02031CD42B013003179A0029
:10075E001A2001300317930002309400CE3095001A
:10076E008320023083120317930002309400C230AC
:10077E00950083201F30FB007130FC001E30FD0001
:10078E00FD0BC72BFC0BC72BFB0BC72B000001303F
:10079E00831203179A001A20CF01D3298D29D62B45
:1008F80020308400503083120313F000DC300317DB
:100908009000033091005321A03084004F308312AF
:100918000313F0002C30031790000430910053218A
:020928000800C5
:0207B80000340B
:1007BA004434493447344934543445342034413478
:1007CA002034533445345134553445344E3443344B
:1007DA0049344134203443344F345234523445344A
:1007EA005434413420345034413452344134203466
:1007FA004134433445344E3444344534523420343D
:0C080A004F3420344C3445344434003466
:020816000034AC
:0C08180052344534533445345434003419
:0C082400503449344E343A34203400344F
:0E08300020344F344C3441342C342034003406
:10083E002034423445344D342034563449344E3409
:0A084E0044344F34213420340034C8
:1008580020344C3445344434203441344334453412
:0C08680053344134213421342034003456
:100874002034503449344E34203443344F345234C9
:0E0884005234453454344F342134203400347F
:0A0892002A342A342A3420340034BA
:10089C00503449344E34203445345234523441347B
:0808AC0044344F3421340034C0
:0A08B40020342034203420340034B6
:0C08BE00503449344E343A3420340034B5
:0A08CA002A34203420342034003496
:0C08D400503449344E343A34203400349F
:0A08E0002A342A3420342034003476
:0C08EA00503449344E343A342034003489
:02400E004A2F37
:00000001FF
