:0200000049288D
:10000600023083120313FC004930FD00FD0B092862
:0A001600FC0B0928000000000800A0
:1000200083120313A9012508F1000130F0007108C3
:1000300003191E28F00D7010FF3E18287008A80044
:100040002408840070080005F10071080130031DC8
:100050000030F0002708F006031946282608003C67
:100060000318362803200320A6032E282408840022
:1000700028080005F10071080130031D0030F00070
:100080002708F00603194628FF30A9002908F000C8
:02009000080066
:1000920083120313A30183160614880183128801B5
:1000A2000630A400A5011430A600A7011020700894
:1000B20003195E2822185E2822140630A400A50126
:1000C2001430A600A70110207008031D6C28221C02
:1000D2006C282210A30A882801308800A92803303E
:1000E2008800A92807308800A9280F308800A9288D
:1000F2001F308800A9283F308800A9287F30880057
:10010200A928FF308800A9288801A301A92823086B
:10011200013A03196D282308023A031970282308AB
:10012200033A031973282308043A0319762823088B
:10013200053A031979282308063A03197C2823086B
:10014200073A03197F282308083A031982288528C9
:040152005128AA285E
:02400E004A2F37
:00000001FF
