:0200000049288D
:10000600023083120313FC004930FD00FD0B092862
:0A001600FC0B0928000000000800A0
:1000200083120313A9012508F1000130F0007108C3
:1000300003191E28F00D7010FF3E18287008A80044
:100040002408840070080005F10071080130031DC8
:100050000030F0002708F006031946282608003C67
:100060000318362803200320A6032E282408840022
:1000700028080005F10071080130031D0030F00070
:100080002708F00603194628FF30A9002908F000C8
:02009000080066
:1000920083120313A30183160614861488018312A4
:1000A20088010630A400A5011430A600A701102083
:1000B20070185D2822115E2822150630A400013036
:1000C200A5001430A600A701102070186A28A211FA
:1000D2006B28A215221D70282218702822142219BA
:1000E2007A28221C7A2822100830230203187A2840
:1000F200A30AA21D7F28A2187F28A214A219892868
:10010200A21C8928A2102308003C03188928A303F3
:10011200A22801308800C22803308800C228073094
:100122008800C2280F308800C2281F308800C228E9
:100132003F308800C2287F308800C228FF30880004
:10014200C2282308013A03198A282308023A03190C
:100152008D282308033A031990282308043A031927
:1001620093282308053A031996282308063A031907
:1001720099282308073A03199C282308083A0319E7
:060182009F285228C3284B
:02400E004A2F37
:00000001FF
