:0200000049298C
:0E000600213083120313FD00FD0B07280800B4
:06001400000000000800DE
:10001A000F3083120313FC004730FD00FD0B132839
:0A002A00FC0B132800000000080082
:1000340083120313DE1B20288813212888175E1BD4
:100044002528081326280817DE1A2A2888122B28A0
:1000540088165E1A2F2808123028081631183428FA
:1000640008153528081188150A208811DE193C283E
:1000740088133D2888175E19412808134228081759
:10008400DE1846288812472888165E184B2808125E
:100094004C280816311850280815512808118815BD
:1000A4000A208811311C58280D20592803200800E3
:0E00B4008312031333088A003208820008000A
:1000C200023083120313FC004930FD00FD0B672848
:0A00D200FC0B672800000000080086
:1000DC008312031331105D08DE001A20311408005E
:1000EC008828803083120313D7009B28C030D70098
:1000FC009B289430D7009B28D430D7009B28803085
:10010C00D7009B28831203135708013A0319772849
:10011C005708023A03197C285708033A03197F2819
:10012C005708043A0319822885285803F000570809
:10013C00F0077008D7007008DE001A203110DA01C1
:10014C005A085907840000080319B4285A0859079B
:10015C0084000008DD006E20DA0AA628311408009D
:10016C0083160313881108110812881208138813B8
:10017C0083128811081188130813881208120D2095
:10018C000D200D208816081688150A2088110D20C0
:10019C0088150A2088110D2088150A2088110D2039
:1001AC00081288150A2088110D2088150A2088113C
:1001BC008812881788150A2088110D2088130816B4
:1001CC0088150A208811081288150A2088110D201C
:1001DC0088150A208811081688150A2088110D2008
:1001EC00081288150A20881188170817881608160F
:0C01FC0088150A2088110D20311408001D
:1002080083120313DC015808F1000130F000710873
:1002180003191229F00D7010FF3E0C297008DB003D
:100228005708840070080005F10071080130031DAB
:100238000030F0005A08F00603193A295908003C22
:1002480003182A2961206120D9032229570884002C
:100258005B080005F10071080130031D0030F00053
:100268005A08F00603193A29FF30DC005C08F00050
:0202780008007C
:10027A005A208A110A128000840AB20A0319B30AA0
:08028A00F003031D3D290800EB
:10029200F621C13083120313B2000130B3003430AF
:1002A20084002330F0003D218316061407108312C8
:1002B2000710B6200130D7000230D8002030D90014
:1002C20076201F30FB007130FC001E30FD00FD0B5C
:1002D2006829FC0B6829FB0B682900000130DE004D
:1002E2001A200630D700D8011430D900DA010421CF
:1002F20070187D2931117E293115311D8329B118DC
:100302008329B11431198D29B11C8D29023056026D
:1003120003188C29D60AB110B22907140130D7006C
:100322000330D8003430D90076200230D7000530AF
:10033200D8004430D9007620BA2907100130DE00F7
:100342001A200130D7000330D8003430D90076208B
:100352000230D7000530D8004D30D9007620D601C2
:10036200BA295608013A03198E295608023A031986
:060372009E297229BB293F
:1003EC0020308400113083120313F000E430B2008B
:0803FC000130B3003D210800AF
:10038200453453345434413444344F3420344434A7
:10039200413420344C34453444343A34203400342B
:1003A2004C344534443420344F344E3420342034D9
:0203B200003415
:1003B4004C344534443420344F34463446342034A9
:0203C400003403
:0203C600003401
:1003C80069346E3469346334693461346C34693443
:1003D8007A3461346E3464346F342E342E342E34CF
:0203E8000034DF
:02400E004A2F37
:00000001FF
