:02000000602975
:0E000600213083120313FD00FD0B07280800B4
:06001400000000000800DE
:10001A000F3083120313FC004730FD00FD0B132839
:0A002A00FC0B132800000000080082
:1000340083120313BD1B20288612212886163D1B1C
:100044002528061226280616BD1A2A2886112B28CA
:1000540086153D1A2F280611302806152E18342827
:1000640006143528061086140A208610BD193C286B
:1000740086123D2886163D19412806124228061686
:10008400BD1846288611472886153D184B280611A9
:100094004C2806152E1850280614512806108614CC
:1000A4000A2086102E1C58280D20592803200800E9
:0E00B400831203132D088A002C088200080016
:1000C20083120313F801F9011030FC00710DF80DD1
:1000D200F90D7408F8027508031C750FF90203186C
:1000E20079287408F80775080318750FF9070310C3
:0A00F200F00DF10DFC0B672808006B
:1000FC00831203132E103C08BD001A202E14080086
:10010C009828803083120313B700AB28C030B70097
:10011C00AB289430B700AB28D430B700AB28803074
:10012C00B700AB28831203133708013A0319872849
:10013C003708023A03198C283708033A03198F2819
:10014C003708043A0319922895283803F000370829
:10015C00F0077008B7007008BD001A202E10BA0105
:10016C003A083907840000080319C4283A083907EB
:10017C0084000008BC007E20BA0AB6282E140800A1
:10018C0083160313861006100611861106128612AA
:10019C0083128610061086120612861106110D2087
:1001AC000D200D208615061586140A2086100D20AC
:1001BC0086140A2086100D2086140A2086100D2025
:1001CC00061186140A2086100D2086140A2086102B
:1001DC008611861686140A2086100D2086120615A6
:1001EC0086140A208610061186140A2086100D200B
:1001FC0086140A208610061586140A2086100D20F7
:10020C00061186140A208610861606168615061503
:0C021C0086140A2086100D202E14080005
:1002280083120313BA0105303A02031822293A0847
:100238003907840020308000BA0A17293A0839079C
:1002480084008001BA033A083907BB000A30F40079
:10025800F5013708F0003808F10061207808F0004F
:100268007908F1003030F0073B08840070088000FE
:100278000A30F400F5013708F0003808F100612071
:100288007008B7007108B80000307106031D4E29C8
:1002980000307006031D51295329BA032729080085
:1002A8005A208A110A128000840AAC0A0319AD0A7E
:0802B800F003031D54290800A6
:1002C000413083120313A0004E30A1003130A20050
:1002D0003A30A3002030A400A5014130A6004E30E2
:1002E000A7003030A8003A30A9002030AA00AB01A6
:1002F0009F01C43083169F0005148514870188016F
:10030000831288018701C6200C30BD001A200130FD
:10031000B7000130B8002030B90086200230B700A5
:100320000130B8002630B9008620B501B6019F1211
:100330001F129F111F140D30FD00FD0B9D291F156D
:100340001E08B600B50183161E088312B5070318F0
:10035000B60A1F100D30FD00FD0BAC293508B700A3
:100360003608B8002F30B90014210130B70005302D
:10037000B8002F30B90086209F121F129F151F143E
:100380000D30FD00FD0BC2291F151E08B600B5017A
:1003900083161E088312B5070318B60A1F100D3006
:1003A000FD00FD0BD1293508B7003608B8002F3005
:1003B000B90014210230B7000530B8002F30B90061
:0603C00086209529E229C8
:02400E004A2F37
:00000001FF
