:02000000A52930
:06000600000000000800EC
:0E000C00213083120313FD00FD0B0A280800AB
:10001A000F3083120313FC004730FD00FD0B132839
:0A002A00FC0B132800000000080082
:1000340083120313C51B2028881321288817451B06
:100044002528081326280817C51A2A2888122B28B9
:100054008816451A2F280812302808163218342812
:10006400081535280811881503208811C5193C285E
:1000740088133D2888174519412808134228081772
:10008400C518462888124728881645184B28081290
:100094004C280816321850280815512808118815BC
:1000A40003208811321C58280D20592806200800E6
:1000B4008312031332104408C5001A2032140800B6
:1000C4007428803083120313C0008728C030C00016
:1000D40087289430C0008728D430C0008728803017
:1000E400C0008728831203134008013A03196328C8
:1000F4004008023A031968284008033A03196B2898
:100104004008043A03196E2871284103F00040089E
:10011400F0077008C0007008C5001A203210C3012F
:1001240043084207840000080319A0284308420733
:1001340084000008C4005A20C30A9228321408001C
:0E0144008312031334088A0033088200080077
:1001520083120313F8010830FC00700DF80D7408C7
:10016200F8020318B628F8070310F00DFC0BAE28AE
:02017200080083
:10017400023083120313FC004930FD00FD0BC0283C
:0A018400FC0BC0280000000008007A
:10018E0083120313BC0103303C020318D5283C082C
:10019E003B07840020308000BC0ACA283C083B077D
:1001AE0084008001BC033C083B07BD000A30F4000C
:1001BE003A08F000A9207808F0003030F0073D082A
:1001CE008400700880000A30F4003A08F000A9207C
:1001DE007008BA007008003A031DF628F828BC0310
:0401EE00DA28080003
:0A01F2008030831203138606080014
:1001FC00013083120313C5001A200130C0000330F4
:10020C00C1002530C20062200230C0000130C100A4
:08021C002030C200622008003E
:1002240083160313881108110812881208138813FF
:1002340083128811081188130813881208120D20DC
:100244000D200D20881608168815032088110D200E
:100254008815032088110D208815032088110D208E
:1002640008128815032088110D2088150320881191
:10027400881288178815032088110D208813081602
:1002840088150320881108128815032088110D2071
:1002940088150320881108168815032088110D205D
:1002A400081288150320881188170817881608165D
:0C02B4008815032088110D20321408006A
:1002C000A2208A110A128000840AB30A0319B40A10
:0802D000F003031D6029080082
:1002D80083120313BF013B08F1000130F0007108DD
:1002E80003197A29F00D7010FF3E74297008BE00BA
:1002F8003A08840070080005F10071080130031DF8
:100308000030F0003D08F0060319A2293C08003C23
:1003180003189229BA20BA20BC038A293A08840013
:100328003E080005F10071080130031D0030F0009F
:100338003D08F0060319A229FF30BF003F08F0006E
:020348000800AB
:10034A00423083120313A0003130A1003A30A200D8
:10035A002030A300A4012030A5005030A600493067
:10036A00A7004330A8003130A9003630AA00463031
:10037A00AB003830AC003730AD003730AE0041301A
:10038A00AF002030B000B101B901861783160614F8
:10039A00861312210C30C5001A20FE200630BA003E
:1003AA00BB011430BC00BD016C217018DE2932116A
:1003BA00DF293215321DE429B218E429B2143219A0
:1003CA00EB29B21CEB29F920B210B90A3908BA0094
:1003DA003530BB00C7200230C0000530C1003530BF
:0803EA00C2006220D329F829AA
:02400E004A2F37
:00000001FF
