:020000000328D3
:10000600831603138801FF308312880088010230AB
:10001600FB000430FC00BA30FD00FD0B1028FC0B81
:100026001028FB0B10280000013088000230FB006E
:100036000430FC00BA30FD00FD0B1F28FC0B1F2806
:10004600FB0B1F2800008801023088000230FB00ED
:100056000430FC00BA30FD00FD0B2F28FC0B2F28C6
:10006600FB0B2F2800008801043088000230FB00BB
:100076000430FC00BA30FD00FD0B3F28FC0B3F2886
:10008600FB0B3F2800008801083088000230FB0087
:100096000430FC00BA30FD00FD0B4F28FC0B4F2846
:1000A600FB0B4F2800008801103088000230FB004F
:1000B6000430FC00BA30FD00FD0B5F28FC0B5F2806
:1000C600FB0B5F2800008801203088000230FB000F
:1000D6000430FC00BA30FD00FD0B6F28FC0B6F28C6
:1000E600FB0B6F2800008801403088000230FB00BF
:1000F6000430FC00BA30FD00FD0B7F28FC0B7F2886
:10010600FB0B7F2800008801803088000230FB004E
:100116000430FC00BA30FD00FD0B8F28FC0B8F2845
:10012600FB0B8F2800008801523088000230FB004C
:100136000430FC00BA30FD00FD0B9F28FC0B9F2805
:10014600FB0B9F280000AD3088000230FB00043016
:10015600FC00BA30FD00FD0BAE28FC0BAE28FB0BF5
:10016600AE280000013088008230FC00DD30FD0042
:10017600FD0BBB28FC0BBB280000000040308800AC
:100186008230FC00DD30FD00FD0BC728FC0BC728C4
:1001960000000000013088008230FC00DD30FD00E8
:1001A600FD0BD328FC0BD32800000000403088004C
:1001B6008230FC00DD30FD00FD0BDF28FC0BDF2864
:0801C600000000000928E628F2
:02400E004A2F37
:00000001FF
